:020000040800F2
:1080000080BA0020F9810008A5A6000889A400080C
:10801000A1A600089D9A0008D1CB0008000000002E
:10802000000000000000000000000000FDC2000889
:10803000559D000800000000938100086DC60008EF
:1080400013820008138200081382000813820008BC
:1080500013820008138200081382000813820008AC
:10806000599D00081382000813820008138200083B
:10807000FD9A0008099B0008159B0008219B000839
:108080002D9B0008399B000813820008138200080A
:10809000138200081382000813820008138200086C
:1080A000138200081382000813820008138200085C
:1080B00013820008E5C60008138200081382000836
:1080C000138200081382000813820008138200083C
:1080D00013820008F1C90008FDC9000809CA000898
:1080E000138200081382000813820008138200081C
:1080F000138200081382000813820008138200080C
:1081000013820008138200081382000813820008FB
:1081100013820008138200081382000813820008EB
:1081200013820008138200081382000813820008DB
:10813000DFF80CD001F082FA0048004735840108CE
:1081400080BA0020EFF3108072B6704780F3108879
:108150007047204C204D25604FF0000484F30988BF
:108160001E4C4FF0010525701D4C4FF080552560C9
:1081700062B6FEE730B41A4C4FF08055256030BC33
:10818000704730B4164C4FF08055256030BC7047B6
:1081900000BF72B6EFF3098028B1203880E8F00FF5
:1081A00010490968086000B50F4880475DF804EB86
:1081B0000E480F490A7802700A480E490A680260A0
:1081C000106890E8F00F203080F309884EF0040E1C
:1081D00062B6704720ED00E00000FFFF210500209F
:1081E00004ED00E028050020DFB00008160500209F
:1081F0001705002030050020064880470648004744
:10820000FEE7FEE7FEE7FEE7FEE7FEE7FEE7FEE746
:10821000FEE7FEE785C60008318100082DE9F05F22
:108220000546002092469B468846064681464024E5
:108230001BE0284641464746224600F050FF534681
:108240005A46C01A914110D311461846224600F0F2
:1082500037FF2D1A67EB01084F4622460120002107
:1082600000F02EFF17EB00094E41201EA4F101047F
:10827000DFDC484631462A464346BDE8F09F000011
:1082800038B5D0E90221491E01EB410102EBC101E1
:108290004268C1EB011102EB81010268C1EB0111DF
:1082A00002EB8102D0E9043101EB410103EB8101D2
:1082B0003023A1F5527191FBF3F4174D6C4302EB9F
:1082C000C41291FBF3F403FB141100921A2902DB90
:1082D000124B1A4400920C2291FBF2F3104C6343B0
:1082E000009C04EBC313009391FBF2F302FB131108
:1082F0000C4A08E0491E40F2A324535C6343009CEF
:1083000004EBC31300930029F4DC0146684600F037
:1083100009FF009838BD00003F0C0F00805101009C
:1083200067C20300E820020840EA01039B0703D06C
:1083300009E008C9121F08C0042AFAD203E011F8A4
:10834000013B00F8013B521EF9D27047D2B201E066
:1083500000F8012B491EFBD270470022F6E710B54A
:1083600013460A4604461946FFF7F0FF204610BDA3
:1083700030B505462A460B4612F8010B13F8014B9F
:1083800008B1A042F8D01CB1002802D06D1CF1E762
:10839000284630BD10B5044604E00B7800F8013BD8
:1083A00003B1491C521EF8D2204610BD421C10F8E1
:1083B000011B0029FBD1801A704710B5002200E094
:1083C000521C835C8C5CA34201D1002BF8D1D8B243
:1083D000E1B2401A10BD30B504460020034600E06B
:1083E0005B1C934203D2E05CCD5C401BF8D030BDF7
:1083F000034611F8012B00F8012B002AF9D1184689
:10840000704730B505460020034600E05B1C9342F0
:1084100005D2EC5CC85C201A01D1002CF6D130BD2D
:1084200000B58DB0099000920B904FF0FF300A908C
:1084300000200C9004480690044807906A4609A85A
:1084400000F076FF0DB000BD4D9300086B9300085F
:108450000FB400B58DB010A909900B9000914FF0AA
:10846000FF300A9000200C900548069005480790C0
:108470006A4609A80F9900F05BFF0DB05DF814FB88
:108480004D9300086B9300082DE9FF5F1D464FF0E8
:10849000FF3BD5E9014691465F464FF00008A969C8
:1084A0007F1C01988847296A824688470028F6D1B0
:1084B000BAF1FF3F0CD024F4C064002E19DD600631
:1084C00014D5BAF12B0F09D0BAF12D0F0ED103E05C
:1084D000584604B0BDE8F09F44F48064A9697F1C4D
:1084E00001988847761E8246002E02DDBAF1300FD1
:1084F00003D0B9F1000F26D032E0A969761E44F40A
:1085000000747F1C019888478246002E05DDBAF171
:10851000780F06D0BAF1580F03D0B9F1000F10D080
:108520001EE0B9F1000F02D0B9F1100F18D1A969FE
:10853000761E24F400747F1C019888478246102020
:1085400002E0082000E00A20814609E008FB090853
:10855000A969761E44F400747F1C019888478246FE
:10856000002E05DD4946504600F022FE0028EDDAD7
:10857000E96901988847A00502D46FF00100A8E7D7
:10858000E00725D1600613D5600502D5C8F10000CB
:1085900000E0404629680A1D2A600968220501D5C5
:1085A000087015E0220701D5088011E008600FE08F
:1085B0002868011D29600068210502D580F8008027
:1085C00006E0210702D5A0F8008001E0C0F8008095
:1085D00038467EE72DE9FF5FD2E901A74FF000089A
:1085E000916999461446DDF838B0464601988847A7
:1085F000054659EA0B0005D009E0A169761C0198EF
:1086000088470546216A284688470028F5D1681C16
:1086100003D05FEACA7005D015E04FF0FF3004B018
:10862000BDE8F09F2068011D2160D0F800800AE0BD
:108630005FEACA7001D108F8015BA169761C7F1E50
:10864000019888470546002F1ADD681C18D0B9F13B
:10865000000F0DD0E81705EBD060421120F01F008D
:1086600059F822102A1A012090400142E0D107E077
:10867000BBF1000FDCD1216A284688470028D7D0FB
:10868000E16901988847BBF1000F07D1002E05DD95
:108690005FEACA7002D1002188F80010A068B842D1
:1086A00003DDBBF1000F03D017B16FF00100B6E797
:1086B0003046B4E72DE9FF4F087881B09946FF288E
:1086C00005D0491C2D2804D00024002308E00023F5
:1086D0000BE00124F9E703EB830300EB4303491CA0
:1086E0000878FF28F7D104B15B420020009014788D
:1086F00001462D2C01D02B2C04D1521C2D2C12D034
:108700000024009400251678FF2E0ED00A24A0FB2A
:1087100004C801FB0481002700FB0711521C16EB63
:108720000C006941EFE70124EBE7994450EA0102AC
:108730000ED00024AA4D2646DFF8A88200F05AFF8A
:1087400082468B46B9F1000009DAC9F100071BE047
:1087500001980021C0E9001105B0BDE8F08F07467F
:1087600012E0F80707D022462B463046414600F07B
:10877000B9FA0646884622462B461046194600F0AE
:10878000B1FA04460D467F10002FEAD1B9F1000F6F
:10879000324643465046594602DA00F015FB01E0E6
:1087A00000F0A0FA009A0AB181F00041019AC2E9F2
:1087B0000001D1E72DE9FF4F1F468DB0D7E90146F3
:1087C0004FF0FF382E2045464FF000090B90B96955
:1087D0006D1C0E988847396A824688470028F6D172
:1087E000BAF1FF3F0AD024F4D064002E11DDBAF1B3
:1087F0002B0F08D0BAF12D0F0BD102E0404611B07B
:10880000ABE744F48064B9696D1C0E9888478246D2
:10881000761E6946600501D52D2000E02B208DF8DD
:10882000000001F1010B0DF1200809E0B9696D1C90
:108830000E98884782460F9844F40074761E0560AF
:10884000002E02DDBAF1300FF0D00B998A453ED1EF
:1088500044F0800406E00F99681CA9F1010944F472
:1088600000740860B9696D1C761E0E9888478246B0
:108870003028F0D02BE00B998A4505D1200603D48F
:1088800044F08004761E18E0504604F055FE08B30C
:108890000DF11301761E44F400748B4508D2AAF141
:1088A00030000BF8010B200607D5A9F1010003E009
:1088B000200602D409F101008146A00502D50F99D6
:1088C000681C0860B9696D1C0E9888478246002EA6
:1088D000D1DC53E0002E51DDBAF1650F02D0BAF1C0
:1088E000450F4BD1A00549D5B9696D1C24F44074DE
:1088F000761E0E9888478246002E0CDD2B2804D069
:10890000BAF12D0F07D144F48074B9696D1C0E982B
:1089100088478246761EE00501D52D2100E02B21F7
:1089200008F8011BCDF82C8021E00DF12901761EFD
:1089300044F4007488450CD2AAF1300010F0FF0016
:1089400088F8000002D10B99884509D908F101087F
:1089500006E0E00501D5244801E042F20F708146AF
:10896000B9696D1C0E98884782460F980560002EE5
:1089700004DD504604F0E0FD0028D6D1F9690E98D8
:108980008847FF208BF8000088F800000020069040
:1089900007904B466A4608A906A8FFF78BFEA0057C
:1089A00002D46FF001002AE714F0240F0AD0E00788
:1089B00014D1DDE906123868031D3B600068C0E988
:1089C00000120BE0DDE9060100F034FB0146E00790
:1089D00004D13868021D3A600068016028460EE73D
:1089E000000024400000F03FF1D8FFFF70B50646BC
:1089F00004F050F9046805460A220021304600F0D0
:108A0000C5FC2C6070BDF0B480EA0102D40F4200B6
:108A1000B2EB410F02D20246084611464A0042D04C
:108A2000C30DDDB2C1F3C752AD1A202D35DAC1F343
:108A3000160141F4000204B15242C5F1200602FAC7
:108A400006F12A411044B3EBD05F23D0C4B1012D0D
:108A5000A0EBC35009DCF0BC4FF0004202EAC35265
:108A6000DBB200F5000000F0D2BC400000F18070E5
:108A700000EBC350A0F1807040EAD170490009E0DA
:108A8000490841EAC071A0EBC35000F5000040085E
:108A900000EBC350F0BC00F0B1BC6142012202EB1C
:108AA0004101001BF6E7F0BC704781F00041AAE7E6
:108AB00080F00040A7E780EA010210B502F0004311
:108AC000400022D04A001FD0010E01EB1261C0F31A
:108AD0005600C2F3560240F4000042F40002A0FB2C
:108AE000022000047F39140400D0401C50EA1240D8
:108AF00001D44000491EC2B20C0604EBD010401C49
:108B00004008802A02D003E0002010BD20F00100C0
:108B1000002900DA0020184310BD30B480EA0102B9
:108B200002F0004530F0004221F0004013D090B137
:108B3000C30DD40DC2F31601C0F31600E41A41F4BC
:108B4000000140F400027D34914201D3641C00E036
:108B50004900002C02DA30BC002070474FF40000BE
:108B60000023914201D3891A034340084FEA41018F
:108B7000F7D151B1914202D14FF0004105E002D24C
:108B80004FF0010101E06FF0010103EBC4502844F4
:108B900030BC00F033BC2DE9FE4F804681EA030073
:108BA000C00F0C46009021F0004123F00045B8EBC7
:108BB0000200A94105D24046214690461C460B467C
:108BC000024623F00040104347D0270DC7F30A00A8
:108BD000C3F30A510290401A019040286BDAC3F3A4
:108BE000130040F4801B0098924620B10023D2EB82
:108BF000030A63EB0B0B01985946C0F14002504643
:108C000000F05EFA06460D4650465946019A00F0BD
:108C100076FA10EB08006141002487EA115284EAD9
:108C2000E7731A4340D0009A62B3019A012A4FEACF
:108C3000075215DC001B61EB02014FF0004202EA13
:108C40000752CDE90042001C41F5801132462B4607
:108C500000F01AFC03B0BDE8F08F40462146F9E76A
:108C6000001B61EB0201001C41F5801300185B4101
:108C70002018A2F5001747EB030140EAD570B6199A
:108C80006D4111E06D084FEA360645EAC0754FEABE
:108C90000752001B61EB0201001C41F580114908DD
:108CA0004FEA30000019514132462B4603B0BDE86F
:108CB000F04F00F0DABB0098012240000023D0EB17
:108CC000020263EBE073009821464FEAE074B8EBD0
:108CD000000061EB0401E9E783F000435BE781F00A
:108CE000004158E72DE9FE4F81EA030404F00044F7
:108CF00021F0004100944FF0000B23F0004350EAB4
:108D000001045ED052EA03045BD0C3F30A54C1F3FA
:108D10000A552C44A4F2F3340194A0FB0254C1F38D
:108D2000130141F48011C3F3130343F4801301FBD7
:108D3000024400FB034E840A970A44EA815447EA3E
:108D40008357A4FB076802958D0A05FB07854FEA48
:108D5000932C04FB0C542705029D4FEA065847EA62
:108D60001637B5EB08056EEB070C870E920E47EA37
:108D7000811742EA8312A7FB0201B6EB0B0164EBF9
:108D800000042B0D43EA0C335E1844EB1C50DA460A
:108D90005146E7FB0201C5F313044FEA0B3343EAE4
:108DA00014534FEA0432019C43EA0603A4F10C0475
:108DB0000294009CCDE900B400F066FB03B0BDE86E
:108DC000F08F00200146F9E72DE9F04D81EA030418
:108DD00004F0004B21F0004514464FF0000A23F048
:108DE000004150EA050220D054EA01021DD0C5F32B
:108DF0000A570246C5F31303C1F31300C1F30A5621
:108E000040F4801543F48013A7EB0608101BD646E8
:108E100008F2FD3873EB050002D308F1010801E008
:108E200092185B41B8F1000F03DA00200146BDE85B
:108E3000F08D00204FF48011064684460EE0171B8B
:108E400073EB050705D3121B63EB050306434CEADE
:108E5000010C49084FEA300092185B4150EA0107C3
:108E6000EDD152EA030012D082EA040083EA050140
:108E7000084305D0101BAB4106D20122002306E0B7
:108E800000224FF0004302E06FF0010253101AEB92
:108E900006004CEB085110EB0A0041EB0B01BDE85A
:108EA000F04D00F0E2BAC10F80EAE0700844CA0752
:108EB0009623002100F0ABBA96230022114600F061
:108EC000A6BA30B4044696230800214604D0B6233F
:108ED00030BC002200F09BBA20460021F8E70EB516
:108EE000C10F80EAE0700844CA07002140F2334312
:108EF0008DE80E000A460B4600F0C6FA03B000BD2E
:108F00000EB540F2334102910021CDE900110A462D
:108F10000B4600F0B9FA03B000BD20F00040C10DCF
:108F2000C0F3160040F400007F2901DA00207047EA
:108F3000962903DCC1F19601C840704796398840F4
:108F4000704720F00040C20DC0F3160040F400004E
:108F50007F2A02DA0020014670470021962A03DCAE
:108F6000C2F19602D0407047963A00F0A9B870B5A9
:108F7000C1F30A5201F000450024C1F3130140F28D
:108F8000FF3341F480119A4201DA002070BD40F2B3
:108F900033439A42A2F2334203DC524200F09FF87C
:108FA00000E090402C43F1D0404270BD00F0004200
:108FB00030F000400AD0C10D01F56071C0F3160019
:108FC00042EA0151C20840071143704700200146A0
:108FD0007047000030B5041E71F1000404DB4FF04F
:108FE0000044404264EB0101141E73F1000405DBF0
:108FF0001C464FF00043524263EB04038B4208BF10
:10900000824230BD30B5041E71F1000404DB4FF024
:109010000044404264EB0101141E73F1000405DBBF
:109020001C464FF00043524263EB0403994208BFD1
:10903000904230BD01F0004330B421F0004150EACD
:10904000010206D00A0DA2F56072C1F31301002AD5
:1090500002DC30BC00207047440F44EAC104C10068
:10906000E01830BC00EBC25000F0C8B9002801DBAA
:10907000C0F10040002901DBC1F10041814270478D
:10908000002801DBC0F10040002901DBC1F10041F3
:109090008842704730B50B4601460020202201244B
:1090A00009E021FA02F59D4205D303FA02F5491BB6
:1090B00004FA02F52844151EA2F10102F1DC30BDCC
:1090C000202A04DB203A00FA02F100207047914088
:1090D000C2F1200320FA03F3194390407047202A7D
:1090E00004DB203A21FA02F00021704721FA02F352
:1090F000D040C2F120029140084319467047202A0F
:1091000006DBCB17203A41FA02F043EAE07306E0AF
:1091100041FA02F3D040C2F12002914008431946BF
:109120007047000010B500683C22B0FBF2F302FB70
:109130001303B0FBF2F00B60B0FBF2F302FB13037E
:10914000B0FBF2F018224B60B0FBF2F302FB13030A
:10915000B0FBF2F0021D8B600723B2FBF3F403FBBC
:109160001422800040F2B55300F66C308A61B0FBE7
:10917000F3F2B0FBF3F403FB1400443280084A61BD
:10918000C8613B2802D3920700D0401C0022074C44
:1091900013460A61E25C824203D8801A5B1C0B61B1
:1091A000F8E7401CC860084610BD000020220208F5
:1091B0003A2800D2303820F02002412A01D3A2F10F
:1091C0003700884201D34FF0FF3070472DE9FF4F41
:1091D0001C4681B00021D4E9016791464FF0FF356C
:1091E0008A468846A1696D1C02988847216A834691
:1091F00088470028F6D1BBF1FF3F0CD026F4C066AB
:10920000002F1ADD700615D5BBF12B0F0AD0BBF16C
:109210002D0F0FD104E04FF0FF3005B0BDE8F08F07
:1092200046F48066A1696D1C029888477F1E8346BC
:10923000002F02DDBBF1300F03D0B9F1000F2AD0AF
:1092400025E0A1696D1C46F400767F1E02988847D0
:109250008346002F05DDBBF1780F06D0BBF1580F18
:1092600003D0B9F1000F10D011E0B9F1000F02D016
:10927000B9F1100F0BD1A1696D1C26F400767F1E89
:10928000029888478346102000E0082081464FEA74
:10929000E970009017E00A20F8E74346AAFB092886
:1092A00003FB0980DDF800C07F1E0AFB0C0112EBF6
:1092B0000B0A41EBEB78A16946F4007605F1010554
:1092C000029888478346002F06DD49465846FFF737
:1092D0006FFF5FEA000BE0D5E16902988847B005AF
:1092E00002D46FF0010098E7F00718D1700610D58E
:1092F0007005514605D50023D1EB030163EB08024D
:1093000000E042462068031D23600068C0E90012A7
:1093100005E02068011D21600068C0E900A828461A
:109320007BE700000268114413780160184670471B
:10933000D160044951610449116200211161114653
:1093400000F09CB92593000869960008426842B174
:10935000016811F8013B23B1521EC0E90012184602
:1093600070470121C160881E704742685AB1C368C6
:10937000016843B983688B4205D0491E521CC0E97D
:109380000012002070474FF0FF3070472DE9F04782
:1093900091460F4680460446002614F8015B2DB125
:1093A00000F05EF90068405DC007F6D12B2D02D0B9
:1093B0002D2D18D0641E4A463946204600F0F4FA96
:1093C00027B13968A14201D1C7F8008071054FF07B
:1093D00002040BD54042002803DD03F05BFC04606F
:1093E000A007BDE8F08746F48066E4E70028F8DAD5
:1093F00003F050FC04606FF00040F2E70029A8BFC2
:109400007047401C490008BF20F00100704710B4AD
:10941000B0FA80FC00FA0CF050EA010404BF10BC62
:10942000704749B1CCF1200421FA04F411FA0CF18F
:1094300018BF012121430843A3EB0C01CB1D4FEAC8
:1094400000614FEA102042BF002010BC704700EBC3
:10945000C35010440029A4BF10BC7047401C4900F1
:1094600008BF20F0010010BC704710B5141E73F146
:10947000000408DA401C41F1000192185B411A43D4
:1094800001D120F0010010BD2DE9F04D92469B4620
:1094900011B1B1FA81F202E0B0FA80F220329046C6
:1094A000FFF70EFE04460F4640EA0A0041EA0B01B0
:1094B00053465A46084313D0114653EA010019D0C7
:1094C000C8F140025046FFF70AFE05460E465046D8
:1094D00059464246FFF7F4FD084305D0012004E059
:1094E00020463946BDE8F08D0020054346EAE07687
:1094F0002C4337430A986305E40AA0EB08000022D6
:10950000FD0A44EA47540A3002D500200146E9E743
:10951000010510196941DDE9084500196941BDE8F7
:10952000F04DA2E770B521F0004303430CD0C1F326
:109530000A550024D5EB040564EB0403D617AD1AD5
:10954000B34102DB0020014670BD201841EB0251FF
:1095500070BD2DE9F04D00231A461B1A8A4103DB2A
:1095600000200146BDE8F08DC1F30A52C1F313019A
:1095700041F480154FF0000BD10702D100186D4166
:10958000521E0027044640F2FF11384601EB620AE2
:109590003E468046024600204FF48011FFF79FFDB3
:1095A000C2197141BB1846EB0100B4EB030C75EB1B
:1095B000000C04D3E41A65EB000517460E46241987
:1095C00008F101006D4180463428E3DDF91946EBCE
:1095D0000600091BA84103D24FF0FF32134601E0F9
:1095E000002213461BEB070046EB0A51BDE8F04D85
:1095F000FFF73BBF0EB540F2334202920022CDE9A5
:1096000000221346FFF740FF03B000BDC1F30A522A
:10961000C1F3130140F2FF3341F480119A4202DAA0
:1096200000200146704740F233439A42A2F233428F
:1096300002DC5242FFF753BDFFF742BD064C074D17
:1096400006E0E06840F0010394E807009847103412
:10965000AC42F6D3FEF770FDA4340208C43402080D
:1096600000487047B022020810B50446FFF7F8FF23
:109670000068005D00F0010010BD00002DE9F34F0F
:109680008BB04FF0000801F10C000C464FF0010BBD
:1096900046460DF1080A0190626901210198904740
:1096A00005002DD0252D2CD0216A8847C0B16269D4
:1096B000012101989047216A88470028F7D1411E6F
:1096C00062690198904700E0761CA1690B98884771
:1096D000216A88470028F7D1E1690B988847DBE7C2
:1096E000A1690B9888470746A84201D1761CD3E7A9
:1096F000E1690B9888477F1C02D1B8F1000F6FD049
:1097000046E1002762693D463946019890472A287C
:1097100004D162690121019890470125DFF8849204
:109720006269012101989047A0F130010A290AD20B
:109730004F45E5DC07EB870100EB4107303FDFD405
:1097400045F01005ECE7E90601D46FF000476C28FE
:109750000AD04C2814D0682815D06A280DD0742857
:109760001CD07A281AD01DE0626901210198904727
:109770006C2802D045F0040514E045F002050DE028
:1097800045F020050AE062690121019890476828A8
:1097900002D045F0080505E045F400656269012145
:1097A00001989047C4E9015765283DD019DC582835
:1097B0007AD00CDC452837D004DC252826D0412877
:1097C00031D131E046282FD047282CD12CE05B281E
:1097D00077D0612828D063287CD0642823D15AE030
:1097E000D0E06F2848D008DC66281DD067281BD041
:1097F000692821D06E2816D127E0702845D073281B
:1098000068D0752847D078280DD14DE0A1690B9814
:109810008847054625283FF469AFE1690B988847DA
:109820006D1C3FF46AAFB3E023466A466FF0010057
:109830000B99FEF7BFFF9EE045F040006060A8076F
:1098400023464FF0000236D43EE0E8077FF447AFEE
:109850002068011D21600068290501D506701BE7FD
:10986000290701D5068017E7A90703D5F117C0E935
:10987000006111E706600FE745F040006060A8074F
:1098800023464FF0080216D41EE040F60E0125EAEA
:109890000100606016E045F040006060A8072346C4
:1098A0004FF00A0207D40FE045F040006060A807BF
:1098B00008D5234610226FF001000B99FFF786FCB4
:1098C00059E007E0234610226FF001000B99FEF7E4
:1098D000DBFD50E04FF000094F464B46632802D0B5
:1098E0005B2806D040E0E80601D40120A0600127F3
:1098F0003AE062690121019890475E2805D14FF056
:1099000001096269494601989047216939B90021E6
:109910000A46534643F82120491C0829FADBB0B314
:10992000216969B9C11700EBD16253110AEB8301B8
:1099300022F01F02821A01200B68904003430B6043
:1099400062690121019890475D28E8D1B9F1000FC3
:1099500009D00020514651F82020D24341F8202060
:10996000401C0828F7DB02AB224600976FF001008D
:109970000B99FEF72FFE00280CDA401C08D1BBF132
:10998000000F05D04FF0FF300DB0BDE8F08FFFE7BE
:109990004046F9E7E90701D108F1010806444FF014
:1099A000000B79E6CCCCCC0C2DE9F05F8246007838
:1099B000002715468B460AF10104B946302801D02C
:1099C0009DB113E014F8010B0127782803D0582823
:1099D00001D045B10AE00DB1102D07D100271025A7
:1099E00014F8010B02E0082500E00A250026B04625
:1099F0000EE005FB080005FB06F1012701EB104610
:109A00001FFA80F8B6F5803F00D3B94614F8010B71
:109A10002946FFF7CDFB0028EBDABBF1000F05D09C
:109A20000FB1641E00E05446CBF80040B9F1000FBE
:109A300006D003F02FF902210160C81EBDE8F09F97
:109A400048EA0640FAE770B58C1810F8015B15F08B
:109A5000070301D110F8013B2A1106D110F8012BA0
:109A600003E010F8016B01F8016B5B1EF9D12B07C5
:109A700005D40023521E0DD401F8013BFAE710F87B
:109A8000013BCB1A921C03E013F8015B01F8015B68
:109A9000521EF9D5A142D8D3002070BD00BFFEE709
:109AA00070B586B005460C460020029003900490E5
:109AB0000590002605A804A903AB02AACDE9001071
:109AC0000BA12846FEF7C4FC04280DD10298207093
:109AD000039860700498A0700598E07002AE30683A
:109AE00010B1002006B070BD4FF0FF30FAE7000063
:109AF00025642E25642E25642E25640010B50121D1
:109B0000022014F029FE10BD10B50121022014F02E
:109B100023FE10BD10B50121002014F01DFE10BD64
:109B200010B50121002014F017FE10BD10B5012161
:109B3000084614F011FE10BD10B50121084614F0BE
:109B40000BFE10BD00F0805111B10349086001E027
:109B500002494860704700000404024000000240CF
:109B600000F0805111B10349086001E002494860EA
:109B700070470000040402400000024021B1026866
:109B800042F00102026004E002684FF6FE731A40E0
:109B90000260704701684FF6FE72114001600021BB
:109BA000016041608160C1604B49884208D14A49E7
:109BB0000839496841F00F01474A083A51608AE084
:109BC00045491431884208D143490839496841F070
:109BD000F001414A083A51607DE03F49283188420E
:109BE00008D13D490839496841F470613A4A083A58
:109BF000516070E038493C31884208D13649083913
:109C0000496841F47041344A083A516063E032498E
:109C10005031884208D130490839496841F47021EF
:109C20002D4A083A516056E02B496431884208D1E8
:109C300029490839496841F47001274A083A5160B6
:109C400049E025497831884208D1234908394968D3
:109C500041F07061204A083A51603CE01F49884257
:109C600006D1011F096841F00F01021F116032E0A7
:109C70001A491431884208D11849091F096841F06E
:109C8000F001164A121F116025E01449283188425C
:109C900008D11249091F096841F470610F4A121F67
:109CA000116018E00D493C31884208D10B49091F69
:109CB000096841F47041094A121F11600BE007491D
:109CC0005031884207D10549091F096841F47021C4
:109CD000024A121F11607047080002400804024047
:109CE0000146486880B2704701460020002201F01A
:109CF000805313B1054B1A6801E0054B1A6802EA5C
:109D000001030BB1012000E0002070470004024075
:109D10000000024010B50022026847F6F0739A4333
:109D20000C6A8B6823430C6923434C6923438C6979
:109D30002343CC6923434C6A23438C6A23431A434D
:109D40000260CB6843600B6883604B68C36010BDE2
:109D5000416070477047000070B5002517F09CF90E
:109D60001649C968441A042000F038F810B314A149
:109D700000200DF09FFE012C05D110484068401CCA
:109D80000E49486003E014B100200C49486017F008
:109D900083F90A49C86008464068032803D30020B5
:109DA00014F0EEF906E005484068022802D30020CE
:109DB00002498860042000F00BF870BD8422002066
:109DC0007368616B652064657465637421000000CD
:109DD000014908607047000014040140014600205A
:109DE0000022074B1B6803EA0102054B14331B6872
:109DF0000B4013B10AB1012000E0002070470000C1
:109E000000040140002123498279002A3AD00A4601
:109E1000126803689A430B461A600A1D12680368A9
:109E20009A430B1D1A60027911440A6803681A43A9
:109E30000A60184A0832126803689A43154B0833BF
:109E40001A601A1D126803689A43124B0C331A6089
:109E50004279102A0ED11A1F126803681A430D4B5B
:109E600008331A601A1D126803681A43094B0C3331
:109E70001A600DE00749427911440A6803681A43E1
:109E80000A6005E0027911440A6803689A430A608F
:109E900070470000000401400549096821F01001E5
:109EA000034A1160114609680143116070470000C0
:109EB0000020024001460020034A106800F03800EC
:109EC00008431060704700000020024070B504464F
:109ED0000025204607F04AFF05460A2D01DA00203A
:109EE00070BD4FF0FF30FBE738B50446002000900E
:109EF000451E0A2C34DAC4EBC4001A4901EB800079
:109F0000007D68B30020C4EBC401164A02EB810156
:109F10000875C4EBC40102EB81010861C4EBC40005
:109F200002EB800004224168684602F055F8C4EB59
:109F3000C4000C4901EB80008069009988420ED072
:109F4000C4EBC402074B03EB82025168C4EBC402AA
:109F500003EB820202F11800042202F0A9F80025A6
:109F6000284638BDA40100200146002070470000AB
:109F700070B505460024284607F0F8FE04460A2C72
:109F800021DA0020C4EBC401104A02EB8101886190
:109F9000C4EBC40102EB81010861C4EBC40102EB14
:109FA00081010875C4EBC402084B03EB82025168BF
:109FB000C4EBC40203EB820202F11800042202F097
:109FC000D1F8002070BD4FF0FF30FBE7A401002066
:109FD00070B506460D460024304607F0C7FE04461D
:109FE0000A2C0EDAC4EBC400074901EB8000007DA7
:109FF00038B1C4EBC40001EB800080692860002008
:10A0000070BD4FF0FF30FBE7A40100202DE9F041C7
:10A0100006460F460024651E304607F0A7FE04469C
:10A020000A2C34DAC4EBC4001D4901EB8000007D2A
:10A0300058BB0120C4EBC401194A02EB8101087529
:10A040000420C4EBC40102EB81010861C4EBC4022B
:10A05000134B03EB82025168C4EBC40203EB820290
:10A0600002F11800042201F0B7FF2546C4EBC4003A
:10A070000B4901EB80008369C4EBC40051F8202038
:10A0800008A100200DF016FD01E04FF0FF352A4633
:10A090000BA100200DF00EFD2846BDE8F081000068
:10A0A000A401002066696C65206E616D65202573D2
:10A0B000206F70656E6421206C656E202564000041
:10A0C00066696C652068616E646C652025640000BB
:10A0D0002DE9F04704460F46164698460025A94646
:10A0E0000A2C58DAC4EBC4002C4901EB8000007D37
:10A0F00018B96FF00900BDE8F0873546C4EBC4001D
:10A10000264901EB80008068B04204D2C4EBC40051
:10A1100001EB80008568C4EBC400204901EB80009E
:10A120004068C4EBC4011D4A02EB8101096900EBE0
:10A130000109C4EBC400114601EB8000006928440A
:10A14000001FC4EBC40102EB8101896988420CD96C
:10A15000C4EBC400114601EB80008069001DC4EB14
:10A16000C40102EB81010969451AAAB24946384681
:10A1700001F032FFC8F80050C4EBC400074901EBFE
:10A18000800000692844C4EBC401044A02EB810149
:10A1900008612846AFE74FF0FF30ACE7A40100208C
:10A1A00070B503460C461546002100220A2B12DA30
:10A1B000C3EBC300094E06EB8001087D10B96FF0B8
:10A1C000090070BD08691044CE68B04203D2201D5A
:10A1D00008610020F5E74FF0FF30F2E7A40100200E
:10A1E0002DE9F84306460F46154698460024A14639
:10A1F0000A2E37DA002D35D0C6EBC6001B4901EB1D
:10A200008004207D18B96FF00900BDE8F88321694A
:10A21000606800EB0109A06900902B4614A10020A2
:10A2200022680DF047FC09EB0500E168884219D26D
:10A23000AAB24946384601F03BFFC8F80050A06971
:10A24000002801DA0020A06120692844001FA169CC
:10A25000884203D920692844001F00E0A069A0615A
:10A260002846D2E74FF0FF30CFE70000A4010020DE
:10A2700066696C65206E616D652025732077726953
:10A280007465206C656E20256421206375722073CF
:10A29000697A65202564200030B500228B071C0FE9
:10A2A0000F2303FA04F20B4B8C1053F82430934322
:10A2B000084C8D1044F8253023468C1053F8243078
:10A2C0008C07240F00FA04F42343024C8D1044F849
:10A2D000253030BD080001402DE9F041024600253F
:10A2E0000026002000230024002791F803C00CF072
:10A2F0000F0591F803C00CF0100CBCF1000F03D057
:10A3000091F802C04CEA050591F800C0BCF1000FBD
:10A3100031D0146800202BE04FF0010C0CFA00F350
:10A32000B1F800C00CEA03069E4220D183004FF032
:10A330000F0C0CFA03F7BC4305FA03FC4CEA0404C7
:10A3400091F803C0BCF1280F06D14FF0010C0CFAB4
:10A3500000FCC2F814C00AE091F803C0BCF1480F39
:10A3600005D14FF0010C0CFA00FCC2F810C0401CE3
:10A370000828D1D31460B1F800C0BCF1FF0F34DD60
:10A38000546800202EE000F1080C4FF0010808FA94
:10A390000CF3B1F800C00CEA03069E4221D1830001
:10A3A0004FF00F0C0CFA03F7BC4305FA03FC4CEA20
:10A3B000040491F803C0BCF1280F05D100F1080C8A
:10A3C00008FA0CF8C2F8148091F803C0BCF1480FE9
:10A3D00007D100F1080C4FF0010808FA0CF8C2F898
:10A3E0001080401C0828CED35460BDE8F0810000E6
:10A3F000F0B50A46002300240021002500F00046A5
:10A40000B6F1004F02D11D4EF16901E01B4E71689B
:10A41000C0F3034583B200F44016B6F5401F08D1DF
:10A4200021F07061154E766826F07066134F7E60DD
:10A4300012E000F48016B6F5801F06D1032606FA56
:10A4400005F4A14341F0706106E0460D360103FAC0
:10A4500006F6B14341F0706122B1460D360103FAB0
:10A4600006F6314300F00046B6F1004F02D1034E2C
:10A47000F16101E0014E7160F0BD0000000001409B
:10A48000416170470161704700BFFEE721B102885A
:10A4900042F48062028004E002884FF6FF331A40E3
:10A4A0000280704770B5024600240025002300207A
:10A4B000958A138B1B0445EA030626F07F4404EAC1
:10A4C00001068E4201D1012000E0002070BD21B1C3
:10A4D000028842F00102028004E002884FF6FE7317
:10A4E0001A400280704721B1028842F480720280D3
:10A4F00004E002884FF6FF631A400280704721B1E2
:10A50000028842F40072028004E002884FF6FF5392
:10A510001A40028070470CB50246002000230193C8
:10A52000009300920B0F019321F07F41019B1BB11F
:10A53000009B1433009303E0090C009B1833009335
:10A54000009B1B680B400BB1012000E000200CBDFC
:10A550002DE9F04385B004460D460026B146042798
:10A56000DFF8CC80A6884FF6C0700640684601F040
:10A57000DDFBDDF808802F48B8FBF0F01FFA80F90A
:10A5800046EA0906A68020884FF6FE710840208022
:10A5900000262949286888420CD828684000B8FB62
:10A5A000F0F087B2042F00DA04273E4309F10100DE
:10A5B000208427E0E8884BF6FF71884206D128689E
:10A5C00000EB4000B8FBF0F087B209E0286800EB30
:10A5D000C00101EB0010B8FBF0F087B247F48047F0
:10A5E000C7F30B0008B947F0010747F400400643E2
:10A5F0004FF4967009FB00F04FF47A7190FBF1F084
:10A60000401C2084A683208840F0010020802688FA
:10A610004FF6F5300640A88869890843064326802E
:10A62000A88929890843208105B0BDE8F08300008E
:10A6300000127A0040420F00A08601000146088AFD
:10A64000C0B2704712B141F0010102E04FF6FE7353
:10A650001940018270470182704700004CF6CC40DF
:10A660000149086070470000003000404AF6AA2007
:10A67000014908607047000000300040014948600F
:10A6800070470000003000400149886070470000BA
:10A690000030004001490860704700000030004071
:10A6A00000BFFEE77047000070B5002100230F22B5
:10A6B000C47804B3154C246804F4E064C4F5E06481
:10A6C000210AC1F10403CA40447804FA03F18478F2
:10A6D0001440214309010E4C0678A155047804F07A
:10A6E0001F050124AC4005786D11AD0005F1E02592
:10A6F000C5F8004109E0047804F01F050124AC40CE
:10A70000044D0678761145F8264070BD0CED00E04A
:10A7100000E400E080E100E002490143024A1160E8
:10A72000704700000000FA050CED00E02DE9F05F35
:10A7300004460F4691461E464FF0000B2078052830
:10A7400004D0012030700020BDE8F09F09F0800A9D
:10A75000BAF1000F04D029F080094FF0010801E0A0
:10A760004FF0000800203070FDF7ECFC8346B9F193
:10A77000000F2CD0B9F1010F3BD0B9F1020F03D07B
:10A78000B9F1030F46D111E0208900EA0705BD4267
:10A7900006D1B8F1010F05D12089A843208101E03D
:10A7A000702030705846FDF7D1FC3AE0208900EA6D
:10A7B000070535B1B8F1010F05D12089A8432081E3
:10A7C00001E0702030705846FDF7C0FC29E0208978
:10A7D00027EA0005BD4206D1B8F1010F05D1208955
:10A7E0002843208101E0702030705846FDF7AEFC10
:10A7F00017E0208927EA000535B1B8F1010F05D12E
:10A8000020892843208101E0702030705846FDF7F0
:10A810009DFC06E05846FDF799FC00256F2030703E
:10A8200000BF00BF28468FE72DE9F04106460D46E0
:10A8300000271348007820B1102028700020BDE8C0
:10A84000F081FDF77FFC07460E48046884B100687C
:10A8500040680C4908600520207026810020606057
:10A8600009A0E0603846FDF771FC0020287004E084
:10A870003846FDF76BFC722028702046DFE70000A9
:10A8800014050020100500203F00000010B500F066
:10A8900013F800F0F1FF01F00DF801F02DF800F0D1
:10A8A000C1FF00F093FF01F097F801F065F800F0A8
:10A8B000D3FD00F007F810BD002001490880704763
:10A8C0005C0500207047000006480078012808D188
:10A8D00005480078FF2804D203480078401C02494C
:10A8E00008707047210500201405002010B50024D1
:10A8F0001A480078012830D1FDF724FC0446184896
:10A90000007820B116480078401E15490870144898
:10A910000078F8B913480078E0B901F0BFF81248A0
:10A920001249097850F82100114908600F48007851
:10A930001049097888420DD00D480068806B401C92
:10A940000B49096888630C480068401C0A49086084
:10A95000FDF717FC2046FDF7F9FB10BD210500208F
:10A9600014050020150500205C2800201705002094
:10A970003005002016050020080500202DE9F041D3
:10A9800006460D464FF000083078022804D001201A
:10A9900028700020BDE8F081FDF7D4FB8046746884
:10A9A000E08A78B12169081D20610F68E08A401EA5
:10A9B000E082A1682069884201D16068206100209E
:10A9C000287002E01F20287000274046FDF7BEFBDC
:10A9D0003846DFE72DE9F04106460F464FF0000804
:10A9E0001F48007810B10020BDE8F081FDF7AAFBF8
:10A9F00080461C480568006820B11A480068406815
:10AA0000184908604046FDF7A1FB3DB3FDF79AFBEE
:10AA1000804615480468C4B100680068124908609F
:10AA20004046FDF793FB666006EB8700A060E6609A
:10AA30002661A7820020E082022028700020288161
:10AA40006C60284600F0B4FE08E0064800686860C4
:10AA5000044805604046FDF779FB00252846C3E71A
:10AA6000140500200C0500203C0500202DE9F047CE
:10AA70000746884615464FF000093878022804D06A
:10AA8000012028700020BDE8F0873C48007818B10C
:10AA9000022028700020F6E73948007818B10D2010
:10AAA00028700020EFE7FDF74DFB81467C68E08AC7
:10AAB00098B12169081D20610E68E08A401EE0827D
:10AAC000A1682069884201D1606820614846FDF78D
:10AAD0003DFB002028703046D5E72A48006890F8F2
:10AAE000300040F004002749096881F83000002058
:10AAF0002449096881F8310022480068C0F82C8098
:10AB0000384600F017FE4846FDF720FB00F08CFFAA
:10AB1000FDF718FB81461B48006890F8310020B112
:10AB200001280DD002280AD105E016480068066AFF
:10AB3000002028700DE000260E20287009E000BFDC
:10AB400039461048006800F0DFFD00260A20287012
:10AB500000BF00BF00200B49096881F83000094997
:10AB6000096881F8310007490968C8610549096821
:10AB700008624846FDF7EAFA304684E714050020EB
:10AB800015050020280500202DE9F04105460E4658
:10AB900000272878022802D00120BDE8F081FDF7C7
:10ABA000D1FA0746A87A60B100230422314628462C
:10ABB00000F068FD3846FDF7C9FA00F035FF0020C7
:10ABC000EBE76C68E08AA18A884204DB3846FDF72F
:10ABD000BDFA1E20E1E7E168081DE0600E60E08A32
:10ABE000401CE082D4E90210884201D16068E06034
:10ABF0003846FDF7ABFA0020CFE7000010B500247F
:10AC00000B480078012811D1FDF79CFA0446094849
:10AC1000007840B908480078FF2804D20648007838
:10AC2000401C054908702046FDF790FA10BD000051
:10AC300021050020140500201505002010B5002472
:10AC400013480078012821D1FDF77CFA0446114809
:10AC50000078C0B10F480078401E0E4908700846C1
:10AC6000007860B90C48007828B92046FDF76EFAE4
:10AC700000F0DAFE0AE02046FDF768FA06E020461A
:10AC8000FDF764FA02E02046FDF760FA10BD00000F
:10AC900021050020150500201405002070B505468B
:10ACA00000260F48007808B1002070BDFDF74AFA71
:10ACB00006460C480468006820B10A4800684068ED
:10ACC000084908603046FDF741FA3CB10320207086
:10ACD000258100206060204600F06AFD2046E4E700
:10ACE000140500200C0500202DE9F04105460E4614
:10ACF000144600272878032803D001202070BDE8DF
:10AD0000F0813148007810B102202070F7E72F4819
:10AD1000007810B10D202070F1E7FDF713FA074617
:10AD2000288940B12889401E28813846FDF70EFA4F
:10AD300000202070E3E72648006890F8300040F0DB
:10AD400001002349096881F8300000202049096882
:10AD500081F831001E480068C662284600F0EAFC0F
:10AD60003846FDF7F3F900F05FFEFDF7EBF9074613
:10AD70001748006890F8310020B1012809D0022856
:10AD800006D102E0002020700BE00E20207008E0C9
:10AD900000BF29460E48006800F0B6FC0A2020706B
:10ADA00000BF00BF00200A49096881F83000084947
:10ADB000096881F8310006490968C8613846FDF71D
:10ADC000C5F900BF9BE70000140500201505002011
:10ADD0002805002070B5044600252078032801D0FE
:10ADE000012070BDFDF7AEF90546A07A60B10023E1
:10ADF00001221946204600F045FC2846FDF7A6F939
:10AE000000F012FE0020ECE720894FF6FF71884227
:10AE100007D22089401C20812846FDF797F90020A1
:10AE2000DFE72846FDF792F93320DAE710B50B4843
:10AE3000007890B900F032FE09480078094908709E
:10AE400009480749097850F8210008490860084670
:10AE5000006807490860FDF77CF910BD2105002056
:10AE600017050020160500205C2800203005002072
:10AE700028050020704700002DE9FE4F06460F46CA
:10AE800090461C464FF00009FDF75CF981461F48CB
:10AE9000007828B14846FDF759F93C20BDE8FE8FFF
:10AEA0001B4850F8240060BB0120194941F82400D8
:10AEB0004846FDF74BF9002342463946304600F03C
:10AEC000C1F8824600200090019003460246514698
:10AED0000290204600F0F8FD054635B90D4800788F
:10AEE00001280CD100F0A0FD09E0FDF72BF9814607
:10AEF0000020074941F824004846FDF727F9284675
:10AF0000CCE74846FDF722F92820C7E714050020C2
:10AF10005C280020210500202DE9F04F85B08146F6
:10AF20008A4693461C46DDE90F78129D0020039067
:10AF3000FDF708F903902348007830B10398FDF736
:10AF400005F93C2005B0BDE8F08F1F4850F82400FB
:10AF500088BB01201C4941F824000398FDF7F6F84E
:10AF60002A464146384600F05DFE2B465A46514679
:10AF7000484600F067F804901198CDE900800295EA
:10AF80003A4620460E9B049900F09EFD064636B9CF
:10AF90000E48007801280CD100F046FD09E0FDF7CD
:10AFA000D1F803900020084941F824000398FDF7E8
:10AFB000CDF83046C6E7FFE70398FDF7C7F828202D
:10AFC000C0E70000140500205C28002021050020B7
:10AFD000704770472DE9F04106460F4614464FF082
:10AFE00000081548007818B112202070BDE8F081E3
:10AFF000FDF7A8F88046FF2E03D11048006890F8AE
:10B0000032600F4850F826502DB94046FDF79EF8A3
:10B0100043202070EAE7012D05D14046FDF796F860
:10B0200043202070E2E7EF644046FDF78FF80020F0
:10B03000207000BFDAE7000014050020280500207A
:10B040005C28002070B5044610464FF080750560FE
:10B05000051F28462C606FF00106051F28462E604C
:10B060004FF01236051F28462E604FF00336051F9D
:10B0700028462E604FF00236051F28462E607610B7
:10B08000051F28462E60051F284629604FF01136FF
:10B09000051F28462E604FF01036051F28462E60EB
:10B0A0004FF00936051F28462E604FF00836051F61
:10B0B00028462E604FF00736051F28462E604FF0B9
:10B0C0000636051F28462E604FF00536051F284618
:10B0D0002E604FF00436051F28462E6070BD704765
:10B0E00070B5054600261748007800B170BD1648B7
:10B0F000007800B1FAE71DB3FDF724F806461348BF
:10B10000006890F834401248005D1049096891F8D1
:10B11000351088430E4908550846005D40B90B4874
:10B12000006890F836100B48007888430949087089
:10B1300006480068C5623046FDF708F800F074FC68
:10B1400000BFD3E7140500201505002028050020C6
:10B15000190500201805002070B5002600F072F8CF
:10B16000FCF7F0FF064631480068401C2F49086094
:10B170003046FCF7EBFF2E480078012853D12D48CC
:10B18000007820B1012804D0022809D103E001256C
:10B190000BE0002509E0012501202649087004E0A4
:10B1A000012500202349087000BF00BF05B970BD0C
:10B1B0002148046833E0FCF7C5FF0646E06A50B357
:10B1C000E06A401EE062E06A28BB94F8300000F0BC
:10B1D000370040B114F8300F00F0C8002070012093
:10B1E0006070303C02E0002084F8310094F83000B8
:10B1F00000F0080078B93434A07810490978084381
:10B200000E49087020780E49085C6178084314F8EC
:10B2100034190B4A505464693046FCF797FF94F890
:10B2200032003F28C7D100BFC1E700004005002021
:10B2300021050020380500203405002018050020D5
:10B240001905002010B507480088401C05490880F2
:10B2500008460088022803D30020088000F034F854
:10B2600010BD00005C0500202DE9F05F06460F468A
:10B2700090469946DDE90AAB0C9D1248007820B152
:10B280008B2028700020BDE8F09FFFF7B7FC00F08E
:10B29000C3F804462CB9FFF7D1FC862028700020A3
:10B2A000F1E7012084F82100A661E76184F820809D
:10B2B000C4F80490C4F808A0FFF7C0FC0020287070
:10B2C0002046E0E71405002010B503480068FFF7AA
:10B2D00081FD0446204610BD5005002070B505468E
:10B2E0000C462878642803D089202070002070BD87
:10B2F0001A48007818B18B2020700020F7E7FFF77C
:10B300007DFC95F82100E8B1012810D002280FD06B
:10B3100003281DD1284600F093F90021284600F0AB
:10B3200019F9FFF78BFC002020700120DFE700BF38
:10B330000021284600F00EF9FFF780FC0020207065
:10B340000120D4E7FFF77AFC872020700020CEE7A9
:10B35000FFF774FC8D2020700020C8E71405002042
:10B360002DE9F04105460F4690461C462878642892
:10B3700004D0892020700020BDE8F08125480078A5
:10B3800018B18B2020700020F6E7FFF737FC95F806
:10B390002100002832D001282AD0022827D00328F3
:10B3A00032D1284600F04CF900202070B7B1032FAD
:10B3B00002D0042F13D108E06E681EB12846A96898
:10B3C000B04701E08F2020700CE06E681EB141464E
:10B3D0002846B04701E08F20207003E002E084207F
:10B3E000207000BF00BFFFF729FC0120C4E700BFA9
:10B3F000FFF724FC8E2020700120BDE7FFF71EFC24
:10B40000872020700020B7E7FFF718FC8D20207000
:10B410000020B1E7140500200C48006808B900209E
:10B4200070470A480168094AC86810600020C8606F
:10B43000086107480088401C054A108005480088BC
:10B44000401E044A10800846EAE700005405002028
:10B4500046050020440500202DE9F0414FF410710D
:10B46000204800F0AFFA40211F4800F0ABFA002559
:10B4700012E0681C86B205EBC5001A4901EB800496
:10B4800006EBC60001EB800764202070002084F8E2
:10B490002100E760681C85B20F2DEAD305EBC500DB
:10B4A000104901EB800464202070002084F8210002
:10B4B000E0600E4908600E49088010200D490880A0
:10B4C00008480D4908600120FFF7E8FB0B490860B8
:10B4D0000020FFF7E3FB0A49086000F013F8BDE81D
:10B4E000F0810000702D0020B031002048050020C0
:10B4F0004605002044050020540500204C0500208E
:10B500005005002000B587B00320002180220A4B9F
:10B51000CDE90132CDE903104FF6FD700423074A4F
:10B5200000900748FFF7F8FC06AA06A10420FFF7E1
:10B5300051FD07B000BD0000B02F0020AC3100204D
:10B54000C1B5000875432F4F532D494920546D72E2
:10B550000000000070B50B46032580F82150012B38
:10B5600005D1154EC5693668354445610CE08569DD
:10B570002DB9114EC56936683544456104E00E4E5B
:10B580008569366835444561057D05F007040B4D36
:10B5900005EBC4010D682DB908600025C5600125C3
:10B5A0008D8006E00A680860C26010618D886D1C9D
:10B5B0008D800025056170BD48050020B031002058
:10B5C00008B500BF00BF6A4600211A480068FFF7AF
:10B5D0008BFBFFF713FB18480068401C16490860F6
:10B5E0000846007800F00708144800EBC8073C68DC
:10B5F0001AE0E668104960690968884213D120465C
:10B6000000F01EF894F82000022804D10121204601
:10B61000FFF7A0FF02E0022084F82100656815B161
:10B620002046A168A8473446002CE2D1FFF706FB6C
:10B63000C9E700005005002048050020B031002077
:10B6400030B5057D05F007040D4D05EBC4031D68FD
:10B65000854205D1C168196039B100250D6104E04A
:10B660000169C268CA6002B11161012580F82150E8
:10B670000025C56005619D886D1E9D8030BD000060
:10B68000B03100202DE9F04F05460F46904699460F
:10B69000A87A19490E5C05F10B00805D11F800B025
:10B6A0000BEBC60000F0FF0A144850F82A400020B7
:10B6B0002034E0602760207C20EA0800207484F8B1
:10B6C0001190207C203C00F0080068B994F8360006
:10B6D0000B49097808430A4908700A48805D94F8C4
:10B6E00035100843074988552946204600F00CF8D4
:10B6F0005046BDE8F08F00001C1E02085C280020A8
:10B70000180500201905002010B590F8342001F12B
:10B710000B039B5C90F83540A34301F10B04A35449
:10B7200023469B5C23B98B7A90F83640A3438B72F7
:10B7300010BD000010B51B4A1268D061194A12688A
:10B7400092F8343000F10B02D25C164B1B6893F870
:10B7500035301A43134B1B6893F8344000F10B0348
:10B760001A55827A0F4B1B6893F836301A4382724F
:10B770000C4A126892F834100B4A525C094B1B6851
:10B7800093F835309A43084B5A541A46525C42B9E2
:10B79000044A126892F83630044A12789A43034BEE
:10B7A0001A7010BD2805002019050020180500207A
:10B7B000014600228A72002005E0002301F10B02FD
:10B7C0001354421CD0B20828F7D370472DE9F0413A
:10B7D0005021114800F0F6F800250DE0681C86B2F3
:10B7E0000D4800EB051400EB061700202070676081
:10B7F0000AA0E060681C85B2042DEFD3064800EB78
:10B80000051400202070606004A0E0600248044934
:10B810000860BDE8F08100000C2700203F00000018
:10B820001005002070B54FF42071114800F0CAF8DF
:10B8300000230FE0581C85B203EB83000C4901EB99
:10B84000800405EB850001EB800600202070666017
:10B85000581C83B21F2BEDD303EB8300044901EB8B
:10B86000800400202070606008460249086070BDB6
:10B870008C2400200C05002000200749086007499F
:10B880000870074908700749087007490870074998
:10B890000860074908607047400500201405002033
:10B8A00015050020220500202105002008050020A4
:10B8B0002405002000210A4A1170002004E0002124
:10B8C000084A1154411CC8B20828F8D30021064A7E
:10B8D0001170064A1170064A1160064A11607047DD
:10B8E0001805002019050020160500201705002066
:10B8F000300500202805002070B54FF46771194805
:10B9000000F060F84FF48071174800F05BF80024F5
:10B9100013E0601CC5B2C4EBC40000EB4000114949
:10B9200001EB8003C5EBC50000EB400001EB800696
:10B930005E610EA0D864601CC4B20A2CE9D3C4EBCB
:10B94000C40000EB4000074901EB80030020586170
:10B9500006A0D8640020064908600248054908602E
:10B9600070BD00005C2900205C2800203F00000022
:10B97000340500202C05002000B587B003200021ED
:10B9800040220A4BCDE90132CDE903104FF6FF709A
:10B990003F23064AFC3200900548FFF7BDFA06AA8D
:10B9A00004A13F20FFF716FB07B000BD5C27002075
:10B9B000FDBB000875432F4F532D49492049646C46
:10B9C0006500000004E0002200F8012B4A1E91B23D
:10B9D0000029F8D1704700002DE9F0417821104886
:10B9E000FFF7F0FF00240DE0601C86B204EB44007A
:10B9F0000B4901EBC00506EB460001EBC0072F60C9
:10BA0000601C84B2042CEFD304EB4400044901EB26
:10BA1000C00500202860084602490860BDE8F081A2
:10BA2000F82C00203C05002010B50024FCF78AFB10
:10BA3000044613480078F8B912480078E0B900F0DD
:10BA40002DF811481149097850F821001049086073
:10BA50000E4800780F49097888420DD00C480068DC
:10BA6000806B401C0A49096888630B480068401CC9
:10BA700009490860FCF77EFB2046FCF767FB10BD18
:10BA800014050020150500205C2800201705002063
:10BA90003005002016050020080500200649074A49
:10BAA0001278885C0649095C034A515C01EBC001CD
:10BAB000044A1170704700001C1E0208180500207F
:10BAC00019050020170500202DE9F84F05460F46FF
:10BAD00090469946DDE90AAB00200090FCF732FB66
:10BAE00000903F480468002C74D0183454F8040CBB
:10BAF0003B4908600098FCF729FB44F8187CA576C0
:10BB0000002020766076606144F814BC44F80CACE8
:10BB100044F8108C0C9824F8080C24F8069C00209B
:10BB2000E077E810207705F00700E076217F01201C
:10BB30008840A077E17E0120884060770020606027
:10BB4000E060A0602062A0626062E062206325A0E5
:10BB50006063183C002606E0002104F1500040F824
:10BB60002610701CC6B2002EF6D02046FFF782F9D0
:10BB70002046FFF72DFAFCF7E5FA00901A4840F846
:10BB800025401A48006860610020A06117480068DD
:10BB900010B1164800688461144804603434A078F9
:10BBA0001349097808431249087020781149085C44
:10BBB0006178084314F834190E4A50540E4800783E
:10BBC000401C0D4908700098FCF7C0FA0020BDE841
:10BBD000F88FFFE70098FCF7B9FA4220F7E700007A
:10BBE0002C0500203F0000005C28002034050020C8
:10BBF000180500201905002022050020002400BFA0
:10BC000000BFFCF79FFA044605480068401C044941
:10BC100008602046FCF79AFAFFF7DBF9F1E700002D
:10BC20002405002002F0010343B102F002032BB10E
:10BC300002E0491E002308C00029FAD17047000025
:10BC400029B1064A52690243044B5A6104E0034A8F
:10BC500052698243014B5A61704700000010024054
:10BC600029B1064AD2690243044BDA6104E0034A6F
:10BC7000D2698243014BDA61704700000010024034
:10BC800029B1064A12690243044B1A6104E0034ACF
:10BC900012698243014B1A61704700000010024094
:10BCA00029B1064A92690243044B9A6104E0034AAF
:10BCB00092698243014B9A61704700000010024074
:10BCC00029B1064AD2680243044BDA6004E0034A11
:10BCD000D2688243014BDA607047000000100240D6
:10BCE0000F48006840F001000D49086008464068B0
:10BCF0000C4908400A494860084600680A4908405B
:10BD0000074908600846006820F48020086008465B
:10BD1000406820F4FE0048604FF41F0088607047C0
:10BD2000001002400000FFF8FFFFF6FE30B50021D2
:10BD30000022002400232D4D6D6805F00C0121B177
:10BD4000042905D0082923D105E0294D056022E00A
:10BD5000274D05601FE0254D6D6805F47012234DD9
:10BD60006D6805F48034022505EB92421CB9214D23
:10BD7000554305600BE01D4D6D6805F400351DB1A0
:10BD80001C4D5543056002E0194D5543056002E026
:10BD9000174D056000BF00BF144D6D6805F0F00140
:10BDA0000909154D6B5C0568DD4045600F4D6D68F8
:10BDB00005F4E061090A104D6B5C4568DD40856063
:10BDC0000A4D6D6805F46051C90A0B4D6B5C4568FE
:10BDD000DD40C560054D6D6805F44041890B074D98
:10BDE0006B5CC568B5FBF3F5056130BD0010024022
:10BDF00000127A0000093D0004060020140600200D
:10BE000010B501460022002300204A11012A02D168
:10BE1000094C236806E0022A02D1074C236A01E09C
:10BE2000054C636A01F01F02012494401C400CB1D0
:10BE3000012000E0002010BD0010024002484068D0
:10BE400000F00C0070470000001002400146002086
:10BE5000034A506820F0F00008435060704700002B
:10BE6000001002401149096821F480310F4A116025
:10BE70001146096821F480211160B0F5803F03D09C
:10BE8000B0F5802F0ED106E00849096841F48031F1
:10BE9000064A116007E00549096841F4A021034AF8
:10BEA000116000E000BF00BF7047000000100240BA
:10BEB00001460020034A506820F4E06008435060C7
:10BEC000704700000010024001460020034A5068FD
:10BED00020F4605040EAC1005060704700100240FA
:10BEE00001490866704700000000424202460020F7
:10BEF000044B586820F47C1042EA01031843014BBC
:10BF0000586070470010024001460020034A506804
:10BF100020F003000843506070470000001002400A
:10BF200038B5002000900024002500BF3120FFF725
:10BF300067FF05460098401C00900098B0F5A06F80
:10BF400001D0002DF2D03120FFF75AFF08B10124B3
:10BF500000E00024204638BD21B1028842F04002B2
:10BF6000028004E002884FF6BF731A4002807047D7
:10BF700010B5002004490860062000F06DF901208A
:10BF80000249C1F8900110BD9001214200002142F8
:10BF900010B504462403FFF7EBFF00F07FF8002004
:10BFA0000B490860202000F057F9C4F3074000F067
:10BFB00053F9C4F3072000F04FF9E0B200F04CF958
:10BFC00001200449C1F8900100F068F810BD00009C
:10BFD00090012142000021422DE9F04106460C4625
:10BFE000174600200F490860032000F035F9C4F31C
:10BFF000074000F031F9C4F3072000F02DF9E0B25A
:10C0000000F02AF9002505E0FF2000F025F9705521
:10C01000681C85B2BD42F7DB012002490860BDE81B
:10C02000F08100009001214210B5002400200E494B
:10C030000860902000F010F9002000F00DF90020B9
:10C0400000F00AF9002000F007F9FF2000F004F9E1
:10C0500044EA0024FF2000F0FFF8044301200349D4
:10C06000C1F89001204610BD9001214200002142FC
:10C0700010B50024002007490860052000F0ECF806
:10C08000FF2000F0E9F8044601200349C1F89001BF
:10C09000204610BD900121420000214210B500BF92
:10C0A000FFF7E6FF00F001000028F9D110BD000005
:10C0B0002DE9F04781460F4616464FEA1738C7F379
:10C0C0000B0ACAF58054A64200DC344644E04FEA2D
:10C0D00008314FF480522248FFF77EFF002508E028
:10C0E0000AEB05001E49085CFF2800D003E0681C2D
:10C0F00085B2A542F4DB00BFA54216DA4046FFF741
:10C1000047FF002507E019F8050005EB0A01144A6E
:10C110005054681C85B2A542F5DB4FEA08314FF454
:10C1200080520F4800F01EF804E022463946484687
:10C1300000F018F8A64200D10FE008F101084FF016
:10C14000000AA1442744301B86B2B6F5805F02DDA9
:10C150004FF4805400E03446B9E700BFBDE8F087F3
:10C16000F03100202DE9F04107460E461446F0B2AA
:10C17000C0F58075AC4200DC254612E02A46314607
:10C18000384600F013F8AC4200D10BE02F442E44A7
:10C19000601B84B2B4F5807F02DD4FF4807500E04F
:10C1A0002546EBE700BFBDE8F08100002DE9F04136
:10C1B00006460C461746FFF7DBFE00200F490860D5
:10C1C000022000F049F8C4F3074000F045F8C4F33A
:10C1D000072000F041F8E0B200F03EF8002504E04E
:10C1E000705D00F039F8681C85B2BD42F8DB0120B3
:10C1F00002490860FFF752FFBDE8F081900121423B
:10C200000246002013890B400BB1012000E0002002
:10C2100070470146888970478181704710B50022B8
:10C22000028802F441520B884C8823438C882343B4
:10C23000CC8823430C8923434C8923438C89234393
:10C24000CC8923431A430280838B4FF2FF7423402F
:10C2500083830B8A038210BD70B50546002405E078
:10C26000601CC4B2C82C01DD002070BD02210E4844
:10C27000FFF7C6FF0028F3D029460B48FFF7CCFF95
:10C28000002405E0601CC4B2C82C01DD0020ECE7EE
:10C2900001210548FFF7B4FF0028F3D00248FFF75B
:10C2A000B8FFC0B2E1E700000030014010B504461D
:10C2B000074800884FF6C7710840054908800846BE
:10C2C00000882043088001210148FFF745FE10BD8A
:10C2D0000030014030B503460C461546002207E009
:10C2E000184600F008F824F812009B1C501C82B27B
:10C2F000AA42F5DB30BD0146088870477047000050
:10C300002DE9F04107460E4690461D46002400BF29
:10C3100006E0601C84B2B4F5FA7F01DDBDE8F0816F
:10C320004FF400314248FEF7F6F80028F1D1012120
:10C330003F48FEF7D8F8002405E0601C84B2B4F54D
:10C34000FA7F00DDEAE73B493948FEF7ABF8002801
:10C35000F3D0002239463648FEF774F905E0601C38
:10C3600084B2B4F5FA7F00DDD8E733493048FEF7F0
:10C3700099F80028F3D001212D48FEF7A8F841468E
:10C380002B48FEF768F9002405E0601C84B2B4F580
:10C39000FA7F00DDC2E72849891C2548FEF782F8AC
:10C3A0000028F2D001212248FEF79DF8002405E084
:10C3B000601C84B2B4F5FA7F00DDAFE71D491C486C
:10C3C000FEF770F80028F3D0012239461848FEF72E
:10C3D00039F9002405E0601C84B2B4F5FA7F00DD71
:10C3E0009CE71449491C1248FEF75CF80028F2D07B
:10C3F00016E0012D07D100210D48FEF747F8012175
:10C400000B48FEF77CF80B493F310948FEF74AF824
:10C4100030B10748FEF712F93070761C681E85B2FD
:10C42000002DE6D101210248FEF730F800BF75E784
:10C430000058004001000300820007002DE9F04190
:10C4400005460E461746002401212848FEF74BF802
:10C4500000BF06E0601C84B2B4F5FA7F01DDBDE8E0
:10C46000F08123492148FEF71DF80028F2D0002270
:10C4700029461E48FEF7E6F8002405E0601C84B259
:10C48000B4F5FA7F00DDEAE71A491848FEF70AF822
:10C490000028F3D039461548FEF7DDF8002405E002
:10C4A000601C84B2B4F5FA7F00DDD8E71149891C1D
:10C4B0000E48FDF7F7FF0028F2D031780B48FEF761
:10C4C000CAF8002405E0601C84B2B4F5FA7F00DDF0
:10C4D000C5E70849891C0548FDF7E4FF0028F2D0AC
:10C4E00001210248FEF70BF800BFB8E700580040F2
:10C4F00001000300820007001FB501218805FFF736
:10C50000AFFB01210820FFF7CBFB1C211A2005F00F
:10C5100067FD1C211B2005F063FD0020ADF8040021
:10C520004BF6FF70ADF80600D020ADF808004FF4D0
:10C530008060ADF80A000001ADF80C0005480090DD
:10C5400069460548FEF704F801210348FDF7BFFFDF
:10C550001FBD0000A08601000058004010B500F08B
:10C5600001F810BD0CB50020019000903348006820
:10C5700040F480303149086000BF3048006800F462
:10C58000003000900198401C0190009818B9019863
:10C59000B0F5A06FF1D12948006800F4003010B167
:10C5A0000120009001E0002000900098012843D174
:10C5B0002348006840F010002149086008460068E0
:10C5C00020F0030008600846006840F002000860A0
:10C5D0001A4840681949486008464068486008465B
:10C5E000406840F4806048600846406820F47C1051
:10C5F00048600846406840F4E81048600846006813
:10C6000040F08070086000BF0C48006800F00070C7
:10C610000028F9D00948406820F003000749486025
:10C620000846406840F00200486000BF0348406888
:10C6300000F00C000828F9D10CBD000000100240E9
:10C6400000200240042808D14FF0E021096941F0A0
:10C6500004014FF0E022116107E04FF0E021096989
:10C6600021F004014FF0E0221161704710B5FEF790
:10C670002BF9FEF771FDFEF739F910F0B3FF0BF05F
:10C68000E3F810BD10B51248006840F001001049F1
:10C690000860084640680F4908400D494860084650
:10C6A00000680D4908400A4908600846006820F4FF
:10C6B000802008600846406820F4FE0048604FF47F
:10C6C0001F008860FFF74AFF04480549086010BD55
:10C6D000001002400000FFF8FFFFF6FE0080000897
:10C6E00008ED00E010B50121074800F015F950B140
:10C6F0000121054800F00CF804480068401C03497B
:10C70000086008F0A1FE10BD00040040D80500201C
:10C71000CA430282704721B1028842F001020280BE
:10C7200004E002884FF6FE731A4002807047000052
:10C7300010B504466848844208D10121C014FFF7AF
:10C74000BFFA0021E014FFF7BBFAC4E0B4F1804F58
:10C7500008D101210846FFF793FA00210120FFF7D5
:10C760008FFAB8E05D48844208D101210220FFF72A
:10C7700087FA00210220FFF783FAACE05848844290
:10C7800008D101210420FFF77BFA00210420FFF7E4
:10C7900077FAA0E05348844208D101210820FFF72E
:10C7A0006FFA00210820FFF76BFA94E04E488442AC
:10C7B00008D101211020FFF763FA00211020FFF7B4
:10C7C0005FFA88E04948844208D101212020FFF720
:10C7D00057FA00212020FFF753FA7CE044488442B6
:10C7E00008D101214014FFF76BFA00216014FFF714
:10C7F00067FA70E03F48844209D10121C804FFF77D
:10C800005FFA00214FF40020FFF75AFA63E03A483C
:10C81000844209D101210805FFF752FA00214FF4A3
:10C820008010FFF74DFA56E03448844209D10121C7
:10C830004805FFF745FA00214FF40010FFF740FAD2
:10C8400049E02F48844208D101214020FFF718FA1F
:10C8500000214020FFF714FA3DE02A48844208D125
:10C8600001218020FFF70CFA00218020FFF708FA51
:10C8700031E02548844208D101218015FFF700FAF4
:10C880000021A015FFF7FCF925E02048844209D1DA
:10C8900001210804FFF714FA00214FF48030FFF75C
:10C8A0000FFA18E01A48844209D101214804FFF721
:10C8B00007FA00214FF40030FFF702FA0BE01548A9
:10C8C000844208D101218804FFF7FAF900214FF4CE
:10C8D0008020FFF7F5F910BD002C01400004004056
:10C8E00000080040000C0040001000400014004010
:10C8F00000340140004C0140005001400054014010
:10C9000000180040001C0040002000400040014092
:10C91000004401400048014030B502460020002399
:10C920000024158A05EA0103958905EA010413B17B
:10C930000CB1012000E0002030BD1AB183890B4307
:10C94000838102E083898B438381704700220288C0
:10C950001D4B98420ED01D4B98420BD0B0F1804F2A
:10C9600008D01B4B984205D01A4B984202D01A4B64
:10C97000984204D14FF68F731A404B881A43174BD5
:10C98000984207D0164B984204D04FF6FF431A4006
:10C99000CB881A4302808B8883850B8803850A4BDA
:10C9A00098420BD0094B984208D00E4B984205D0C4
:10C9B0000D4B984202D00D4B984201D10B7A038661
:10C9C0000123838270470000002C014000340140A5
:10C9D0000004004000080040000C0040001000402F
:10C9E0000014004000400140004401400048014064
:10C9F00010B50021084611F0AFFE10BD10B50021A2
:10CA0000012011F0A9FE10BD10B50021022011F087
:10CA1000A3FE10BD21B1828942F40052828104E05C
:10CA200082894DF6FF731A40828170471AB1838A5A
:10CA30000B43838202E0838A8B43838270470246E2
:10CA40000020B1F5007F00D100BF13880B400BB16F
:10CA5000012000E00020704770B50246002400234A
:10CA60000025002040F66A16B14200D100BFC1F394
:10CA7000421501F01F03012606FA03F3012D02D12E
:10CA80009689334006E0022D02D1168A334001E038
:10CA9000968A33400C12012606FA04F416883440B4
:10CAA00013B10CB1012000E0002070BDF0B50346C9
:10CAB000002400260025002040F66A17B94200D164
:10CAC00000BF1846C1F3421401F01F06012707FA00
:10CAD00006F5012C01D10C3004E0022C01D11030FC
:10CAE00000E014301AB107682F43076002E00768BE
:10CAF000AF430760F0BD00002DE9F04786B0054662
:10CB00000E460024A24600BFA1460027B08900B10E
:10CB100000BF2F462C8A4CF6FF700440F088044377
:10CB20002C82AC894EF6F3100440B088318908435A
:10CB3000718908430443AC81AC8A4FF6FF4004403E
:10CB4000B0890443AC8201A8FFF7F0F81F48874280
:10CB500002D1DDF810A001E0DDF80CA0A88900F4F6
:10CB6000004040B10AEBCA0000EB0A1031684900EE
:10CB7000B0FBF1F807E00AEBCA0000EB0A103168DD
:10CB80008900B0FBF1F86420B8FBF0F00401200943
:10CB9000642101FB1089A88900F4004040B13220D3
:10CBA00000EBC900B0FBF1F000F00700044308E01F
:10CBB000322000EB09106421B0FBF1F000F00F000F
:10CBC00004432C8106B0BDE8F08700000038014026
:10CBD00000BFFEE70FB41CB50A46521ECDE90002A5
:10CBE00007A9054B6A46069800F0AEFC009A0021A2
:10CBF00011701CBC5DF814FB77DC00080FB4084B07
:10CC000010B504A902AA039800F09EFC044602A9EC
:10CC1000002001F03BF8204610BC5DF814FB00003A
:10CC20008DDC00087CB5491E1C461546CDE9000187
:10CC3000044B6A462146284600F086FC009A0021F3
:10CC400011707CBD77DC000837B514460846064BEA
:10CC50006A46214600F078FC04466946002001F04F
:10CC600015F820463EBD00008DDC0008490050EA62
:10CC7000C12018BF04204A0D18BF40F0010040F247
:10CC8000FF72B2EB515F08BF40F00200012808BFFD
:10CC900005207047004870473406002030B528B1A1
:10CCA000144C031F002021680A4605E0084630BDE9
:10CCB0009A4203D810465268002AF9D1002800D0C1
:10CCC00041680BD00468A3EB0005A54204D11B68A2
:10CCD0001C440346046002E0436000E023603AB174
:10CCE0001C68D51AA54203D115682C441C605268F3
:10CCF0005A6030BD2C0600202DE9F74F144694B041
:10CD00000021C4E902111599079121F00045C94994
:10CD10008D4206DC1599C4E9000117B00020BDE87A
:10CD2000F08FC549DFF814A3A9423CDD0799C44E32
:10CD30000029C44FC44A1599534619DDFBF7CCFFAF
:10CD4000554506D0C14AC24BFBF7C6FFC4E90001F6
:10CD50000AE04FF0D352BE4BFBF7BEFF32463B46D4
:10CD6000FBF7BAFFC4E9000117B00120BDE8F08F5E
:10CD7000FBF711FF554506D0B44AB54BFBF70BFF47
:10CD8000C4E900010AE04FF0D352B14BFBF703FFB7
:10CD900032463B46FBF7FFFEC4E9000117B04FF0F7
:10CDA000FF30BDE8F08FAB49A942159978DB21F03F
:10CDB000004183468846A84AA84BFBF793FF002210
:10CDC000A74BFBF7E8FEFCF7D2F80990FCF787F8D1
:10CDD00006460F469C4A5346FBF784FF43465A4695
:10CDE000FBF77DFF80468A46984A994B3046394684
:10CDF000FBF778FF2A0D01250B9242465346FBF7BD
:10CE00006EFF032DC4E9000139D00B98C1F30A511C
:10CE1000401A05EB45111139814230DA9148C34679
:10CE2000784400EB0510CDF80CA00C90D0E900235D
:10CE300030463946FBF756FF02460B4604910690F2
:10CE400058460399FBF748FF80468A4602460B4640
:10CE500058460399FBF740FF049B069AFBF73CFFFB
:10CE600083460C9803913946D0E902233046FBF7FC
:10CE700039FF5A46039BFBF72FFF6D1CBDE7079850
:10CE80000028A2BF099817B0BDE8F08F616881F053
:10CE900000416160099817B04042BDE8F08FFFE79C
:10CEA00084461598C1F31301C0F30A50A0F2F5307F
:10CEB0004FEA601800F01F06C6F120001390002012
:10CEC0000690079041F4801E05206D4676B1664AB3
:10CED00008EB00017A4452F8213002EB8101B340A3
:10CEE0004A68139922FA01F1194305E05F4908EBFA
:10CEF0000002794451F82210A1FB0E27A1FB0C136C
:10CF00001A449A4234BF0123002303EB070A05EBBE
:10CF10008003D3E901B70F448F4234BF01210021C0
:10CF200093448B4411B1934502D903E0934501D258
:10CF3000012100E00021C3E901B7514445F8201068
:10CF4000011EA0F10100C1DC0298059F00F1005014
:10CF5000800F12900298DDE903568000FBF7BFFFB7
:10CF6000834628460D91FBF7CBFF6FF01D02FCF7BF
:10CF7000D9FACDE90E013046FBF7C2FF6FF03D0252
:10CF8000FCF7D0FA80468A463846FBF7B9FF6FF0C7
:10CF90005D02FCF7C7FA0746424653461191FBF77C
:10CFA000FAFDDDE90E23FBF7F6FD5A460D9BFBF774
:10CFB000F2FD00250E465A4628460D9BFBF78CFED7
:10CFC000DDE90E23FBF788FE42465346FBF784FE5D
:10CFD0003A46119BFBF783FEDFF898A0244A53469C
:10CFE000FBF780FE07468846234A244B31462846F5
:10CFF000FBF778FE3A464346FBF7CDFD07468846E9
:10D000004FF0A842534631462846FBF76BFE3A469E
:10D010004346FBF7C0FD159A12F0004F04D0129A58
:10D0200081F0004152421292C4E90001129817B0F7
:10D03000BDE8F08FFB21E93F7CD90240FB21F93F9D
:10D040007370032E8A19A33B000040543163621AA7
:10D0500061B4D03DFB21394183C8C96D305FE43FE5
:10D060000000E03F0C530100885201006A520100A9
:10D07000182D4454FB21F93D3326A611460B113CD3
:10D080002DE9FF4D21F0004807460C46B8F1795FC5
:10D0900008DAFBF76CFF002801BF0020324904B01A
:10D0A000BDE8F08D3A46234610461946FBF71AFEB6
:10D0B000054602462D480E460B460621784400F0F0
:10D0C0005DF82A463346FBF70DFEDDE90223824672
:10D0D0008B4638462146FBF705FE04460F4652466E
:10D0E0005B4628463146FBF7FDFD22463B46FBF7F3
:10D0F000F3FD07468A464FF0FF3228463146FCF7DB
:10D1000011FA1B4A90450ADA3A465346FBF7E4FD0A
:10D1100004B00022BDE8F04D134BFBF7E0BD154A0B
:10D120004245A8BFA8F500154FF00004B8BF124D46
:10D1300022462B46FBF7D0FD0646884622462B4664
:10D1400000200949FBF7C8FD04460D463A46534600
:10D1500030464146FBF7C0FD04B022462B46BDE8F1
:10D16000F04DFBF7BCBD00000000F03F385001005F
:10D170003333D33F0000E93F0000D23F2DE9F041B7
:10D180004F1E00EBC7010446D1E9000115461E46BB
:10D1900037F006020DD02A463346FBF7A3FD7F1E6B
:10D1A00004EBC703D3E90023FBF7F5FC37F00602D5
:10D1B000F1D1022F25D0042F13D0062F18BFBDE8C0
:10D1C000F0812A463346FBF78DFDD4E90A23FBF7AD
:10D1D000E2FC2A463346FBF785FDD4E90823FBF73A
:10D1E000DAFC2A463346FBF77DFDD4E90623FBF73C
:10D1F000D2FC2A463346FBF775FDD4E90423FBF73E
:10D20000CAFC2A463346FBF76DFDD4E90223FBF73F
:10D21000C2FC2A463346FBF765FDD4E90023BDE88E
:10D22000F041FBF7B8BC00002DE9FF4D054621F0A9
:10D23000004084B00C46B0F1795F0BDA2846FFF766
:10D2400015FD042808BF00F0A7F8284608B02146BD
:10D25000BDE8F08D2A460B461046FBF743FD064617
:10D260000F462A462346FBF73DFD804626488A4660
:10D2700032463B4605217844FFF780FF83461098ED
:10D28000029160B3214A224B40465146FBF72AFDEA
:10D29000CDE900015A4640465146029BFBF722FD6C
:10D2A00082468846DDE906014FF0FF32FCF73AF985
:10D2B00052464346FBF710FD32463B46FBF712FD54
:10D2C000DDE90623FBF708FDDDE90023FBF704FD9C
:10D2D00008B02A462346BDE8F04DFBF700BD0B46DB
:10D2E0005A4630463946FBF7FDFC084A084BFBF727
:10D2F00052FC42465346FBF7F5FC08B02A4623464B
:10D30000BDE8F04DFBF747BC7E4F01004955555530
:10D310005555C5BF2DE9F04782460F4C10480D4EBC
:10D320000E4F001B4FF0000820F007054FF00109D9
:10D3300000221146504607F043FF002802D1306812
:10D3400010B10020BDE8F0873C60C4E90058C6F881
:10D350000090EDE730060020844200202C060020DB
:10D3600080B800200022134610460149FBF72CBD6F
:10D370000000F03F0122FCF7D5B8FBF70CBC0022FF
:10D38000134610461146FBF71FBD40F20132002044
:10D390004FF0E041FCF7C6B8024A00201107FCF745
:10D3A000C1B8000001FDFFFF02E008C8121F08C15C
:10D3B000002AFAD170477047002001E001C1121F16
:10D3C000002AFBD170470000014908607047000047
:10D3D000340600202DE9FF5FDDE90220010DDDF8B4
:10D3E00038B0024318D044F61050A1F2FF31414347
:10D3F0000D140F98012820D0A5EB0B00401C5FEA0C
:10D40000000A4FF00004474EDFF81C91A04650463A
:10D4100016D5CAF1000728E00F98012443A201287D
:10D4200008D0002100980F9BC0E90021C0E9024309
:10D43000BDE8FF9F6FEA0B01F4E7CBF10000DEE7E8
:10D44000074612E0F80707D02246334640464946D1
:10D45000FBF748FC8046894622463346104619466B
:10D46000FBF740FC04460E467F10002FEAD1DDE9B1
:10D470000201BAF1000F42464B4602DAFBF732FCDA
:10D4800001E0FBF7A1FC04460E460022284BFBF707
:10D49000B9FD03D84FF0FF30014607E00022254BCD
:10D4A00020463146FBF777FBFCF7B0F8102409E083
:10D4B000002C0ADB0A220023FAF7B0FE019B30326F
:10D4C0001A55641E50EA0102F2D1641C019AC4F19B
:10D4D000110314440F9A012A03D0012208430DD1ED
:10D4E0000AE0084304D000204FF0110B0F9080E7B2
:10D4F000A3EB0B056D1E0DE05B4504DD4FF0000254
:10D5000005F1010504E003DA4FF00002A5F1010581
:10D51000002AECD000980F99C0E90231C0E900451B
:10D5200086E70000000024400000F03F30000000CB
:10D530000000F0430000E03F30380A2801D201200B
:10D5400070470020704700002DE9FF4F95B09B46C3
:10D550008946064600250FE2252877D10024274674
:10D56000F84A0121059400E0044316F8013F203BEE
:10D5700001FA03F01042F7D130782A2811D06FF069
:10D580002F033078A0F13002092A16D8059A44F00A
:10D59000020402EB820203EB42021044761C059067
:10D5A000EFE759F8042B0592002A03DA504244F4BD
:10D5B0000054059044F00204761C30782E2816D1D1
:10D5C00016F8010F44F004042A280DD06FF02F0242
:10D5D0003078A0F13003092B09D807EB870302EB61
:10D5E0004303C718761CF3E759F8047B761C3078A0
:10D5F0006C280FD006DC4C2817D068280DD06A287C
:10D6000014D104E0742810D07A280FD10DE044F42E
:10D6100000140AE044F4801401E044F440147278E9
:10D62000824202D104F58014761C761C307866287C
:10D630000BD013DC582877D009DC002875D045289A
:10D64000F6D04628F4D047281AD19DE118E0632887
:10D6500035D0642879D0652812D195E1702873D02F
:10D6600008DC6728F1D069286FD06E280DD06F28AC
:10D6700006D1B5E073282CD0752875D0782874D0E1
:10D680005A46179990476D1C75E1C4F30250022861
:10D6900009D003280DD0D9F8001004280DD00D6052
:10D6A00009F1040967E1D9F80010EA17C1E900524D
:10D6B000F6E7D9F800100D80F2E70D70F0E719F8E1
:10D6C000041B8DF8001000208DF80100EA460120AF
:10D6D00003E059F804AB4FF0FF3061074FF0000151
:10D6E00002D40DE008F101018846B9420FDA804505
:10D6F000F8DB1AF808100029F4D108E008F101015C
:10D7000088468142FADB1AF808100029F6D10598FC
:10D710005B46A0EB080721463846179A00F094FABA
:10D72000284400EB080507E04DE029E10DE01AF878
:10D73000010B5A4617999047B8F10108F7D25B469A
:10D7400021463846179A13E142E00A220092C4F3B8
:10D7500002524FF0000A022A08D059F804CB032ADB
:10D760004FEAEC710AD00DE029E02AE009F1070147
:10D7700021F00702F2E802C1914609E00FFA8CFCA1
:10D780004FEAEC71042A03D14FFA8CFC4FEAEC719A
:10D79000002907DA0A460021DCF1000C61EB0201E6
:10D7A0002D2202E0220504D52B228DF8042001222F
:10D7B00003E0E20701D02022F7E7904659E00A2172
:10D7C00002E010220DE010214FF0000A00910BE062
:10D7D00010224FF0000A44F004040827009203E0EE
:10D7E00008224FF0000A0092C4F30252022A05D028
:10D7F00059F804CB0021032A08D009E009F10701F8
:10D8000021F00702F2E802C1914605E01FFA8CFC04
:10D81000042A01D10CF0FF0C4FF00008220728D594
:10D82000702806D0009B83F0100353EA0A0305D04A
:10D830000EE040228DF80420012208E05CEA01029B
:10D8400006D030228DF804208DF805000222904683
:10D85000009B83F0080353EA0A030AD15CEA010241
:10D8600001D1620705D530228DF804204FF0010860
:10D870007F1E582804D034A003900EA802900DE01B
:10D8800036A0F9E753466046009AFAF7C7FC84468B
:10D890000398825C0298401E029002705CEA0100CC
:10D8A000F0D1029806A9081A00F1200A600702D5F3
:10D8B00024F4803400E00127574502DDA7EB0A007D
:10D8C00000E0002000EB0A01009005984144401A56
:10D8D0000590E00306D45B462146179A059800F0B0
:10D8E000B3F90544002706E001A85A46C05D179920
:10D8F00090476D1C7F1C4745F6DBE0030CD55B466B
:10D900002146179A059800F09FF9054404E030205D
:10D910005A46179990476D1C0099481E009000299F
:10D92000F5DC08E0029802995A460078491C0291F9
:10D93000179990476D1CBAF10001AAF1010AF1DCB8
:10D9400065E10000092801003031323334353637C3
:10D95000383961626364656600000000303132333B
:10D9600034353637383941424344454600000000DB
:10D9700000F058F90544761C307800287FF4ECADAF
:10D9800019B02846BDE8F08F620700D4062709F1D8
:10D99000070222F0070CFCE80223E14603F00048EE
:10D9A0005FEA080C02D00FF2702C0DE05FEA045C15
:10D9B00002D50FF2682C07E05FEAC47C02D00FF2B8
:10D9C000602C01E0AFF2700C4FF0FF3823F0004301
:10D9D000CDF850C065280CD006DC452809D0462873
:10D9E0001DD047283DD13DE0662818D067287ED15C
:10D9F00038E00021112F01DB112000E0781CCDE977
:10DA0000000106A90EA8FFF7E5FCDDE90F010E9A5B
:10DA100003910021009207F1010A04914DE04FF0BB
:10DA200000400097CDE9011006A90EA8FFF7D2FC2F
:10DA3000DDE90F0203920E9B11990022DDF80CA084
:10DA40000093049211B9791C00EB010AB7EB0A00AC
:10DA500004D4C0F1FF3007F1010A0490AAEB0700DB
:10DA6000019044E0012F00DA01270021112F01DD90
:10DA7000112000E03846CDE9000106A90EA8FFF705
:10DA8000A9FCDDE90F010E9A039100210491009297
:10DA9000BA4621070CD40399514500DA8A46BAF1F7
:10DAA000010F05DD009AAAF10101515C302908D06F
:10DAB000B84202DA10F1040F06DA0121CDE90110B3
:10DAC00015E0AAF10101E9E7002805DC0499014409
:10DAD0000491AAEB000102E0411C514500DD8A4699
